:020000040800F2
:1000000000070020F1010008352D0008ED2C000844
:10001000152D0008ED2C00080D2D0008F301000837
:10002000F3010008F3010008F3010008DD3D0008BA
:10003000F3010008F3010008F3010008F3010008D0
:10004000F3010008F3010008F3010008F3010008C0
:10005000F3010008F3010008F3010008F3010008B0
:10006000F3010008F3010008F3010008F3010008A0
:10007000F3010008F3010008F3010008F301000890
:10008000F3010008F3010008F3010008F301000880
:10009000F3010008F3010008F3010008F301000870
:1000A000F3010008F3010008F3010008F301000860
:1000B00001430008F3010008F3010008F301000800
:1000C000F3010008F3010008F3010008F301000840
:1000D000F3010008ED420008F3010008F3010008F5
:1000E000F3010008F3010008F3010008F301000820
:1000F000F3010008F3010008F3010008F301000810
:10010000F3010008F3010008F3010008F3010008FF
:10011000F3010008F3010008F3010008F3010008EF
:10012000F3010008F3010008F3010008F3010008DF
:10013000F3010008F3010008F3010008F3010008CF
:10014000F3010008F3010008F3010008F3010008BF
:10015000F3010008F3010008F3010008F3010008AF
:10016000F3010008F3010008F3010008F30100089F
:10017000F3010008F3010008F3010008F30100088F
:10018000F3010008F3010008F3010008F30100087F
:10019000F3010008F3010008CD2C0008DD2C000855
:1001A000F3010008F3010008F3010008F30100085F
:1001B000F3010008F3010008F3010008F30100084F
:1001C000F3010008F3010008F3010008F30100083F
:1001D000F3010008F3010008F3010008F30100082F
:1001E000B5140008FFFFFFFFFFFFFFFFFFFFFFFF4A
:1001F00002E000F000F8FEE772B6374880F30888A6
:10020000364880F3098836483649086040F20000D5
:10021000CCF200004EF63471CEF200010860BFF35C
:100220004F8FBFF36F8F40F20000C0F2F0004EF628
:100230008851CEF200010860BFF34F8FBFF36F8F7C
:100240004FF00000E1EE100A4EF63C71CEF20001D4
:100250000860062080F31488BFF36F8F04F0D0FE8F
:1002600004F0A2FF4FF055301F491B4A91423CBF9A
:1002700041F8040BFAE71D49184A91423CBF41F886
:10028000040BFAE71A491B4A1B4B9A423EBF51F82E
:10029000040B42F8040BF8E700201849184A914271
:1002A0003CBF41F8040BFAE704F0AEFE04F0C2FFD5
:1002B000144C154DAC4203DA54F8041B8847F9E797
:1002C00000F042F8114C124DAC4203DA54F8041B12
:1002D0008847F9E704F096BE0007002000230020BD
:1002E0000000000808ED00E00001002000070020E9
:1002F0002055000800230020B4230020B82300204C
:100300007C540020E0010008E4010008E40100083A
:10031000E40100082DE9F04F2DED108AC1F80CD052
:10032000C3689D46BDEC108ABDE8F08F002383F3BF
:1003300011882846A047002004F0DEFAFEE704F00A
:1003400061FA00DFFEE70000F8B501F021F904F0E2
:10035000F5FD074604F046FE0546A8BB1F4B9F422D
:1003600032D001339F4232D01D4B27F0FF029A4218
:1003700030D1F8B200F0F4FE2E4642F2107400F0D4
:10038000F5FE08B10024264601F06EFC20B10320E2
:1003900000F078F80024264635B1124B9F4203D076
:1003A00004F018FE00242646002004F0D1FD0EB112
:1003B00000F07EF801F000FA00F00CFF204600F09B
:1003C000CFF800F075F8F9E72E460024D7E7044689
:1003D0000126D4E7064640F6C414D0E7010007B072
:1003E000000008B0263A09B008B501F09DF8A0F168
:1003F00020035842584108BD07B5042101900DEB78
:10040000010001F0AFF803B05DF804FB38B530230C
:1004100083F31188174803680BB104F02BFB164ACD
:10042000144800234FF47A7104F01AFB002383F37D
:100430001188124C236813B12368013B2360636861
:1004400013B16368013B63600D4D2B7833B963686A
:100450007BB9022001F03EF9322363602B78032B35
:1004600007D163682BB9022001F034F94FF47A7395
:10047000636038BDB82300200D040008D824002094
:10048000D0230020084B187003280CD8DFE800F0B8
:1004900008050208022001F013B9022001F006B994
:1004A000024B00225A607047D0230020D82400203D
:1004B00010B501F0D9FB30B1234B03221A70234B46
:1004C00000225A6010BD224B224A1C461968013195
:1004D000F8D004339342F9D16268A242F2D31E4BA2
:1004E0009B6803F1006303F510439A42EAD204F0DB
:1004F00043FD04F055FD002001F064F80220FFF7F1
:10050000C1FF164B9A6D00229A65996F9A67996F91
:10051000D96DDA65D96FDA67D96F196E1A66D3F8B3
:100520008010C3F88020D3F8803072B64FF0E023FB
:100530003021C3F8084DD4E9003281F311889D467B
:1005400083F308881047BDE7D0230020D82400207B
:1005500000900008209000080023002000100240B6
:100560002DE9F04F93B0DFF8F89202902022FF219E
:100570000AA8D9F8085001F0C9F8B04A1378A3B90D
:10058000AF48012103601170302383F311880368A1
:100590000BB104F06FFAAB4AA94800234FF47A710B
:1005A00004F05EFA002383F31188029B13B1A64B7B
:1005B000029A1A60A54A029C1378032B1EBF0023DF
:1005C0001370A14A4FF0000B18BF5360CDF804B070
:1005D0005E46DA46012001F073F824B19A4B1B689D
:1005E000002B00F0C581002000F09EFF071E80F266
:1005F000F58100F037FEF0E70220FFF7F5FE002856
:1006000040F0E381029B9248BBF1000F08BF1C46FB
:10061000022140E04FF47A7000F086FF071EF1DB04
:100620000220FFF7E1FE0028ECD0013F052F00F289
:10063000CE81DFE807F003070A0D10330520FFF72E
:10064000DBFE14E0D9F80000F9E7D9F80400F6E77A
:10065000D9F80800F3E74FF01C08404600F0B4FF5B
:1006600008F10408FFF7C8FEB8F12C0FF5D1019B83
:10067000012000FA07F71F43FBB201934FF0000A75
:1006800001F090F82EB1019B03F00B030B2B08BF78
:1006900000247048022100F065FF9BE7D9F80C00A8
:1006A000CDE7002EAED0019B03F00B030B2BA9D19D
:1006B0000220FFF799FE07460028A3D0012000F092
:1006C00081FF0220FFF7DEFE00261FFA86F8404673
:1006D00000F088FF044670B10021404600F09AFF08
:1006E00001360028F1D1BB4604465B48022100F0E8
:1006F00039FF3E466EE70120FFF7C4FE2546D9F8D4
:100700000830AB4207D9284600F05EFF013040F0C8
:1007100061810435F3E74D4B00251D704A4BBB4604
:100720005D603E46ACE7002E3FF46CAF019B03F0EA
:100730000B030B2B7FF466AF0220FFF7A3FE3220E2
:1007400000F0F2FEB0F10008FFF65CAF18F003070E
:100750007FF458AFD9F8082008EB050393423FF621
:1007600051AFB8F5807F3FF74DAF3C4B0393B84591
:100770000BDD4FF47A7000F0D7FE0028FFF642AF91
:10078000039B013703F8010BF0E7C820FFF72CFEAD
:10079000074600283FF436AF1F2D11D8C5F12002BF
:1007A00042450AAB25F0030028BF42462B4903927D
:1007B000184400F099FF039A2848FF2100F0A6FF93
:1007C0004FEAA80325490393C8F38702284600F09F
:1007D000A5FF0646002888D0039B05EB83054FE75D
:1007E0000220FFF701FE00283FF40CAF00F024FFC9
:1007F00000283FF407AF0027B846D9F80830BB42BD
:1008000018D91F2F11D80A9B01330ED027F00303EC
:1008100012AA134453F8203C05934046042205A92C
:1008200001F00CFA04378046E7E7384600F0CCFECA
:100830000590F2E74046FFF7DFFD21E7D4240020D2
:10084000B82300200D040008D8240020D023002065
:1008500020530008185300081C530008D42300201C
:10086000002300200023642105A8059300F070FEFA
:1008700000287FF4C7AE0220FFF7B6FD00283FF442
:10088000C1AE059800F0CEFED5E70023642105A88F
:10089000059300F05DFE00287FF4B4AE0220FFF760
:1008A000A3FD00283FF4AEAE059800F0BDFEC2E700
:1008B0000220FFF799FD00283FF4A4AE00F0CCFE23
:1008C000B9E70220FFF790FD00283FF49BAE05A991
:1008D000142000F0C7FE0390FFF78EFD039905A8D2
:1008E00000F040FECCE6322000F01EFE071EFFF6B0
:1008F00089AEBB077FF486AED9F8082007EB0A0360
:1009000093423FF67FAE0220FFF76EFD00283FF4D2
:1009100079AE27F003075744BA453FF4B1AE5046CD
:1009200000F052FEFFF768FD0AF1040AF4E74FF405
:100930007A70FFF759FD00283FF464AE00F07CFEAA
:10094000002849D00A9B01330BD008220AA90020B5
:1009500000F0E4FE00283FD02022FF210AA800F08A
:10096000D5FE3B48022100F0FDFD3A4803F0CAFFE6
:1009700013B0BDE8F08F002E3FF444AE019B03F0AE
:100980000B030B2B7FF43EAE0023642105A80593D7
:1009900000F0DEFD074600287FF434AE0220FFF7AA
:1009A00023FD804600283FF42DAE0221284800F0A8
:1009B000D9FD41F2883003F0A5FF059800F008FF4B
:1009C000464600F0EFFE3C4604E6064658E64FF089
:1009D000000A17E6BB4688E6374686E6012000F0A7
:1009E00065FEA7F1210016283FF6F4AD01A353F8E8
:1009F00020F000BFF905000815060008A30600084E
:100A0000D5050008D5050008D5050008270700080A
:100A1000E7080008E1070008650800088B080008DF
:100A2000B1080008D5050008C3080008D50500086E
:100A30002F09000881060008D5050008770900087D
:100A40000506000881060008D505000865080008AD
:100A500018530008A0860100094A136849F269008A
:100A600099B21B0C00FB01331360064B186844F26B
:100A7000506182B2000C01FB0200186080B2704726
:100A8000142300201023002010B50021102204465A
:100A900000F03CFE034B03CB206061601868A0604F
:100AA00010BD00BF9075FF1FF0B5ADF54F7D6CAC6C
:100AB0004FF4C47207460D462046002100F026FE82
:100AC00002F040F9264B4FF47A72B0FBF2F0186056
:100AD00093E80700022384E807000DF5E9702382FC
:100AE000FFF7D2FF4FF61B031E49238406A804F02C
:100AF0000BFC1B2384F832310DF2E32206AB0DF11F
:100B0000300C1E4603CE664510605160334602F13C
:100B10000802F6D13188B37893700DAE118020466B
:100B20003146012200F06EFE00230393AB7E029358
:100B300005F11903019380B20123CDE9046000930C
:100B4000E97E05A3D3E90023384602F00FFD0DF539
:100B50004F7DF0BDAFF300809E6AC421818A46EECE
:100B6000E0240020245300082DE9F0412C4C237A86
:100B7000DAB080460D465BBB27A9284600F068FF27
:100B80000746002842D19DF89D60C82E3ED80146F8
:100B90004FF4A662204600F0B9FD4FF48073C4F80C
:100BA000F8314FF40073C4F80C334FF44073C4F8B9
:100BB000203432460DF19E0104F1090000F094FD4D
:100BC00026449DF89C30777223720BB9EB7E23721A
:100BD0008122002106AC27A800F098FD01222146C1
:100BE00027A800F07BFF00230393AB7E029305F15F
:100BF000190380B201932823CDE904400093E97ED4
:100C000005A3D3E90023404602F0B0FC5AB0BDE88A
:100C1000F08100BFAFF3008026417272DF25D7B7A5
:100C200028350020F0B5254E4FF48A7505FB006588
:100C3000F1B096F8D83085F8DC300024D82221466F
:100C400085F8E8403AA800F061FD06F1090000F0DF
:100C500055FDD5F8E4308DF8F000C2B206AF06F1CC
:100C600009010DF1F100CDE93A3400F03DFD3946BE
:100C700001223AA800F068FF80B2CDE90470082391
:100C80000127CDE9023706F1D80301933023009301
:100C9000317A0B4807A3D3E9002302F067FCA04296
:100CA00006DD02F04FF8C5F8E000384671B0F0BD3F
:100CB0002046FBE778F6339F93CACD8D2835002078
:100CC000F83400202DE9F0411D4D1E4E1E4F86B018
:100CD000284602F077FC034658B30024CDE90344CC
:100CE000ADF81440027B8DF8142099684068029496
:100CF00003AA03C21B68DFF8548043F00043029349
:100D000002F022F8821941F10003009402A938464A
:100D100001F09EF9A04205DD284602F057FC88F854
:100D20000040D5E798F80030072B05D8013388F844
:100D3000003006B0BDE8F081014802F047FCF8E75A
:100D4000F834002040420F00603A00205D3A002055
:100D500070B50D4614461E4602F064FB50B9022ED3
:100D600010D1012C0ED112A3D3E90023C5E9002331
:100D7000012007E0282C10D005D8012C09D0052C23
:100D80000FD0002070BD302CFBD10BA3D3E9002382
:100D9000ECE70BA3D3E90023E8E70BA3D3E9002397
:100DA000E4E70BA3D3E90023E0E700BFAFF3008043
:100DB000401DA12026812A0B78F6339F93CACD8D42
:100DC0009E6AC421818A46EE26417272DF25D7B71A
:100DD000F017304A39059E5638B505460E4C0021AD
:100DE000013500F017FCA4F82C55B4F82C0500F0E0
:100DF000F9FB78B1B4F82C0500F004FC014648B9C1
:100E0000B4F82C0500F006FCB4F82C350133A4F836
:100E10002C35EAE738BD00BF2835002010B50A4B55
:100E20000A4A1A6003F5805393F858203AB95C6D6A
:100E30002CB1204600F096FF204601F0CDF8BDE829
:100E40001040034800F08EBF603A00207C53000839
:100E5000A04A00202DE9F04F8FB000AF05460C46A8
:100E600002F0E0FA00284BD1237E022B1BD1E38A4B
:100E7000012B18D101F066FF0646FFF7EDFD034692
:100E80004FF4C870DFF8D482B3FBF0F206F51676A3
:100E900002FB103316FA83F3C8F80030E37E33B94F
:100EA000A74B00221A703C37BD46BDE8F08F07F112
:100EB0002401204600F080FD0028F4D107F1140041
:100EC000FFF7E2FD97F8264007F11401224607F1EB
:100ED000270004F0E7F90028E2D10F2C08D8984B3E
:100EE0001C70D8F80030A3F51673C8F80030DAE7A4
:100EF00097F824100029D6D0284602F08BFAD2E7C2
:100F0000E38A282B33D010D8012B2BD0052BCAD144
:100F1000BFF34F8F8B498C4BCA6802F4E0621343D6
:100F2000CB60BFF34F8F00BFFDE7302BBBD1874EA7
:100F3000E17E327A9142B6D1607E3146002291F84C
:100F4000DC50854200F0AD800132042A01F58A713F
:100F5000F5D1326840F6B831FA328A4294BF326035
:100F60003160A0E721462846FFF79EFD9BE721461A
:100F70002846FFF7F9FD96E7B2F8EC507B6005F1E3
:100F800003094FEA99094FEA8902D11DC908A8EB64
:100F9000C1039D46EB460021584600F0B7FB04F123
:100FA000EE012A463144584600F09EFB7B6813B997
:100FB000012000F007FB96F8D20000F013FB044676
:100FC00030B9307200F038FB204600F0FBFAB0E098
:100FD000D6F8D4203AB996F8D200B6F82C25824239
:100FE00001D8FFF7F9FED6F8D4202A44944208D25B
:100FF00096F8D200B6F82C250130824201D8FFF7CE
:10100000EBFE70685FFA89F2594600F087FB08B979
:10101000C54679E0726896F8D2002A447260D6F824
:10102000D42005EB0209C6F8D49000F0DBFA814524
:1010300009D396F8D220D6F8D4000132001B86F8E6
:10104000D220C6F8D400FF2D0FD80024347200F04F
:10105000F3FA204600F0B6FA00F006FE3C4B188189
:1010600008B9FFF725FAC5461DE7BB6896F8D90011
:101070000AFB0362FB68D2F8E41082F8E83001F55D
:101080008061C2F8E030C2F8E410FFF7CBFDFFF753
:1010900019FE96F8D920013202F0030286F8D92011
:1010A000B6E74FF48A7A0AFB02F505F1EA0131440A
:1010B000204600F07DFDF86000287FF4F4AE354452
:1010C000012285F8E82001F03DFED5F8E020D6EDBC
:1010D000007ADFED206A801A192838BF192040F6FF
:1010E000B832904228BF1046B8EE677A07EE900AF1
:1010F000F8EEE77A67EEA67ADFED176AE7EE267A72
:10110000FCEEE77AC6ED007A96F8D9307168BB60DC
:101110000AFB03F4321992F8E8505DB1D2F8E430DA
:101120008B42E8463FF428AF002182F8E810C2F86D
:10113000E010C5467368064A9B0A01331381B2E684
:10114000F134002000ED00E00400FA05283500200D
:10115000E0240020CDCCCC3D6666663FF434002010
:10116000014B1870704700BFEC24002038B54FF0D9
:101170000054144B22689A4221D1607DF0B1124B89
:10118000124918701248237D03724FF48073C0F81F
:10119000F8314FF40073C0F80C3300254FF440735E
:1011A000C0F82034C0F8E450C922093000F09CFA9D
:1011B000E0222946204600F0A9FA012038BD00208F
:1011C000FCE700BF9AAD44C5EC24002016000020C7
:1011D0002835002037B500F047FD194D1949288101
:1011E0000223002218486B7101F090F9002301934B
:1011F000164B174900931748174B4FF4805202F0D3
:10120000E1F8164B197811B1124802F003F901F018
:1012100099FD0446FFF720FC4FF4C873B0FBF3F2CE
:1012200002FB130304F5167010FA83F00C4B1860E0
:1012300003F0D8FE08B10F232B8103B030BD00BFEF
:10124000E024002040420F00603A0020510D0008C9
:10125000F0240020F8340020550E0008EC24002073
:10126000F43400202DE9F04F2DED028B0FF23829D8
:10127000D9E90089834C93B00BAE9FED7E8BFFF7CD
:1012800021FD814FDFF828A200230A93ADF8343006
:101290000B9373604FF0000B5B468DED008B0125C7
:1012A0000DF11D0207A938468DF81C508DF81DB0B0
:1012B00001F0B0FC9DF81C30002B40F0A5802046CA
:1012C00002F0B0F80646002845D1704F01F03AFD13
:1012D0003B6898423FD301F035FD8246FFF7BCFBE7
:1012E0004FF4C873B0FBF3F202FB13030AF5167058
:1012F00010FA83F03860664F97F800B0CBF1100A0F
:10130000BBF1000F14BF33462B465FFA8AFA0EA8D2
:101310008DF82830FFF7B8FBBAF1060F28BF4FF061
:10132000060A0EAB03EB0B0152460DF1290000F04B
:10133000DBF90AAB0393182302930AF10102554B20
:10134000D2B2CDE90053049220464CA3D3E9002346
:1013500002F0AEF83E7001F0F5FC4F4A4F4D1368B5
:10136000C31AB3F57A7F2ED3106001F0EDFC02466C
:101370000B46204602F034F9204602F053F810B331
:101380002B7A474E002B14BF03230223737101F005
:10139000D9FC0EAF4FF47A730122B0FBF3F039465B
:1013A0003060304600F0E0FA182302933D4B019381
:1013B00080B240F25513CDE90370009342464B468C
:1013C000204602F075F82B7A93B101F0BBFC0026A1
:1013D00007464FF48A7A95F8D900304400F00300AC
:1013E0000AFB005393F8E82092B30136042EF2D1A1
:1013F000C82003F087FA2B7A002B7FF43DAF13B09F
:10140000BDEC028BBDE8F08FDAF8143083F4806312
:10141000CAF81430594610220EA800F077F90DF1E1
:101420001E0308AA0AA9384600F01CFF96E803002C
:101430000FAB83E803009DF834308DF844300A9BED
:101440000E930EA9DDE90823204602F09DFA21E75C
:10145000D3F8E02042B12B68FA2B38BFFA23BA1A2E
:101460000533B2EB430FC0D3FFF7DCFB0028BCD140
:10147000BEE700BF0000000000000000401DA120EA
:1014800026812A0BF8340020603A0020F434002032
:10149000F1340020F0340020583A00202835002094
:1014A000E02400205C3A0020F1C6A7C1D068080FF4
:1014B0000004004808B5054800F078FFBDE8084082
:1014C000034A0449002003F0D1BE00BF603A002067
:1014D000804F00201D0E000870B5104B1B780133A3
:1014E000DBB2012B0C4612D80D4B1D6829684FF456
:1014F0007A730E6AA2FB0332014622462846B047A1
:10150000844204D1074B00221A70012070BD4FF4B1
:10151000FA7003F0F7F90020F8E700BF1823002065
:101520001C230020744F002007B500230246012130
:101530000DF107008DF80730FFF7CEFF20B19DF8C1
:10154000070003B05DF804FB4FF0FF30F9E700003F
:101550000A4608B50421FFF7BFFF80F00100C0B2C2
:10156000404208BD30B4074B0A461978064B53F881
:1015700021402368DD69054B0146AC46204630BC5E
:10158000604700BF744F00201C230020A08601008C
:1015900070B503F06FFB094E094D308000242868B8
:1015A0003388834208D903F061FB2B68044401337C
:1015B000B4F5104F2B60F2D370BD00BF764F002002
:1015C000304F002003F010BC00F1006000F5104027
:1015D0000068704700F10060920000F5104003F0D1
:1015E0008DBB0000054B1A68054B1B889B1A834274
:1015F00002D9104403F03ABB00207047304F00205E
:10160000764F0020024B1B68184403F037BB00BF25
:10161000304F0020024B1B68184403F041BB00BF51
:10162000304F00200020704700F10050A0F510401E
:10163000D0F8900570470000064991F8243033B186
:101640000023086A81F824300822FFF7C3BF012075
:10165000704700BF344F0020014B1868704700BF2F
:10166000002004E030B50F4B0F4C1B682288C3F3F9
:101670000B030138934208440BD164680A46013CCD
:10168000824213460BD214F9015F2DB102F8015BBF
:10169000F6E781420B4602D22C2203F8012B581A9E
:1016A00030BD00BF002004E020230020022802BF3C
:1016B000024B4FF080629A61704700BF00040048FF
:1016C000022802BF024B4FF480629A61704700BF4C
:1016D00000040048022801BF024A536983F4806372
:1016E000536170470004004810B50023934203D0B3
:1016F000CC5CC4540133F9E710BD00000346024638
:10170000D01A12F9011B0029FAD17047024403468E
:10171000934202D003F8011BFAE770472DE9F84322
:101720001F4D144695F824200746884652BBDFF823
:1017300070909CB395F824302BB92022FF214846A5
:101740002F62FFF7E3FF95F82400C0F10802A242E0
:1017500028BF2246D6B24146920005EB8000FFF733
:10176000C3FF95F82430A41B1E44F6B2082E17447C
:101770009044E4B285F82460DBD1FFF75DFF0028D8
:10178000D7D108E02B6A03EB82038342CFD0FFF767
:1017900053FF0028CBD10020BDE8F8830120FBE7F0
:1017A000344F0020024B1A78024B1A70704700BF6A
:1017B000744F00201823002003494FF461430B604D
:1017C000024B186802F07ABF5C4F00201C230020F7
:1017D000094B10B51822044600211846FFF796FF62
:1017E000064A074B127804600146BDE8104053F8E2
:1017F000220002F063BF00BF5C4F0020744F002046
:101800001C2300202DE9F3470D4604460021904695
:10181000284640F27912FFF779FF23462022002163
:10182000284602F053F8231D02222021284602F008
:101830004DF8631D03222221284602F047F8A31D1C
:1018400003222521284602F041F804F10803102262
:101850002821284602F03AF804F110030822382122
:10186000284602F033F804F11103082240212846EB
:1018700002F02CF804F1120308224821284602F055
:1018800025F804F1140320225021284602F01EF806
:1018900004F1180340227021284602F017F804F1E1
:1018A00020030822B021284602F010F804F1210399
:1018B0000822B821284602F009F804F12207C026C0
:1018C0003B46314608222846083601F0FFFFB6F5B0
:1018D000A07F07F10107F3D194F832308DF807307B
:1018E00031460DF107030822284601F0EFFF0026DC
:1018F00004F1330A9DF807304FEAC6099E4209F504
:10190000A47720D394F83231502B28BF50238DF880
:101910000730B8F1000F08D139460DF1070307224F
:10192000284601F0D3FF09F24F17002604F23314C2
:101930009DF807309E4207EBC6010DD30731C8085A
:1019400002B0BDE8F0870AEB0603082239462846B4
:1019500001F0BCFF0136CDE7A3190822284601F0AB
:10196000B5FF0136E4E7000013B504460846002140
:1019700001602346C0F803102022019001F0A6FF69
:101980000198231D0222202101F0A0FF0198631D70
:101990000322222101F09AFF0198A31D0322252191
:1019A00001F094FF019804F108031022282101F0AE
:1019B0008DFF072002B010BDF7B5047F05460E4627
:1019C0002CB1838A122B02D9012003B0F0BD002371
:1019D000194607220096284601F03CFE731C00932E
:1019E000012200230721284601F034FED4B9B31C9C
:1019F0000093052223460821284601F02BFE0D24E2
:101A0000B378102BE0D83746B278BB1B934210D383
:101A10002B7FA88A0734E408B3B9844294BF00201E
:101A20000120D2E7AB8ADB00083BDB08B370082457
:101A3000E6E7FB1C0093214600230822284601F01C
:101A400009FE08340137DFE7201A18BF0120BCE780
:101A5000F7B5047F05460E462CB1838ACA2B02D9FE
:101A6000012003B0F0BD0023194600960822284645
:101A700001F0F0FD731CD4B90822009311462346EF
:101A8000284601F0E7FD10247378C82BE8D801231D
:101A900072785F1C013B934210D32B7FA88A0734D6
:101AA000E408B3B9844294BF00200120D9E7AB8A8F
:101AB000DB00083BDB0873700824E5E7F3190093AB
:101AC000214600230822284601F0C4FD08343B4685
:101AD000DEE7201A18BF0120C3E70000F7B50D4666
:101AE00004460021164628468122FFF70FFE2346B2
:101AF00008220021284601F0E9FE94F901206378CC
:101B0000002AB8BF7F238DF807309EB90DF1070377
:101B100007220821284601F0D9FE0F2700260234AB
:101B20009DF807309E4207EBC60105D30731C80870
:101B300003B0F0BD0827F1E7A3190822284601F0F9
:101B4000C5FE0136ECE70000F7B50E46054600215C
:101B500014463046CE22FFF7D9FD2B46282200211D
:101B6000304601F0B3FE2B7AC82B28BFC8238DF86E
:101B700007308CB90DF1070308222821304601F007
:101B8000A5FE30242F469DF807207B1B934205D3EA
:101B9000E01DC00803B0F0BD2824F3E707F10903F6
:101BA00021460822304601F091FE08340137EAE769
:101BB000F7B5047F05460E4634B1838AB3F5827FBC
:101BC00002D9012003B0F0BD0096012310220021AC
:101BD000284601F03FFDDCB9B31C009309222346DF
:101BE0001021284601F036FD19247388B3F5807F53
:101BF000E7D837467288BB1B934210D32B7FA88A45
:101C00000734E408B3B9844294BF00200120D9E727
:101C1000AB8ADB00103BDB0873801024E5E73B1D3B
:101C20000093214600230822284601F013FD0834C2
:101C30000137DFE7201A18BF0120C3E730B5094D8F
:101C40000A4491420DD011F8013B5840082340F35B
:101C50000004013B2C4013F0FF0384EA5000F6D14E
:101C6000EFE730BD2083B8EDF7B5384A106851680A
:101C70006B4603C36A4636493648082303F022FB05
:101C80000446002833D10A25334A106851686B4650
:101C900003C36A4631492F48082303F013FB044667
:101CA000002849D00369B3F5EE2F45D8B0F8661087
:101CB00041F6F83291423FD1294A024402F15C01D7
:101CC0008B4239D35C3B234900209E1AFFF7B6FFB5
:101CD0003246074604F164010020FFF7AFFFA36816
:101CE0009F4229D1E368984208BF002524E0036998
:101CF000B3F5EE2F27D8418B41F6F832914220D12F
:101D0000174A024402F110018B4218D3103B1149CB
:101D100000209D1AFFF792FF2A46064604F118019B
:101D20000020FFF78BFFA3689E4202D1E368984230
:101D300001D00D25A8E70025284603B0F0BD1025E9
:101D4000A2E70C25A0E70B259EE700BF4C53000837
:101D5000DC6F07000090000855530008906F0700E3
:101D60000870FFF710B5037C044613B9006803F050
:101D700091FA204610BD00000023BFF35B8FC360C3
:101D8000BFF35B8FBFF35B8F8360BFF35B8F7047E5
:101D9000BFF35B8F0068BFF35B8F704770B505467C
:101DA0000C30FFF7F5FF05F1080604463046FFF753
:101DB000EFFFA04206D930466D68FFF7E9FF2544E2
:101DC000281A70BD3046FFF7E3FF201AF9E700003C
:101DD00070B50546406898B105F10800FFF7D8FFD7
:101DE00005F10C0604463046FFF7D2FF8442304628
:101DF00094BF6D680025FFF7CBFF013C2C44201AEF
:101E000070BD000038B50C460546FFF7C7FFA0427D
:101E100010D305F10800FFF7BBFF04446868B4FB6A
:101E2000F0F100FB1144BFF35B8F0120AC60BFF306
:101E30005B8F38BD0020FCE72DE9F04114460746D2
:101E40000D46FFF7C5FF844228BF0446D4B1B8460B
:101E500058F80C6B4046FFF79BFF30442860404623
:101E60007E68FFF795FF331A9C4203D86C6001200F
:101E7000BDE8F0816B60A41B3B68AB602044E86068
:101E80000220F5E72046F3E738B50C460546FFF794
:101E90009FFFA04210D305F10C00FFF779FF044427
:101EA0006868B4FBF0F100FB1144BFF35B8F0120C5
:101EB000EC60BFF35B8F38BD0020FCE72DE9FF41EC
:101EC000884669460746FFF7B7FF6C4606B204EB43
:101ED000C6060025B44209D06268206808EB0501F7
:101EE000FFF702FC636808341D44F3E729463846CF
:101EF000FFF7CAFF284604B0BDE8F081F8B50546F3
:101F00000C300F46FFF744FF05F108060446304643
:101F1000FFF73EFFA042304688BF6C68FFF738FFEE
:101F2000201A386020B130462C68FFF731FF20447A
:101F3000F8BD000073B5144606460D46FFF72EFFA8
:101F4000844228BF04460190DCB101A93046FFF766
:101F5000D5FF019B33B93268C5E90233C5E90024D6
:101F600001200CE09C4238BF019428600198686011
:101F70008442F5D93368AB60241AEC60022002B0C9
:101F800070BD2046FBE700002DE9FF410F46694682
:101F9000FFF7D0FF6C4600B204EBC0050026AC4250
:101FA00009D0D4F8048054F8081BB8194246FFF74A
:101FB0009BFB4644F3E7304604B0BDE8F0810000E7
:101FC00038B50546FFF7E0FF044601462846FFF70F
:101FD00019FF204638BD000008B103F05BB9704717
:101FE00070470000036800221B68184700F5805006
:101FF00090F869047047000000F5805090F8620482
:102000007047000000F5805090F9680470470000A8
:10201000302383F3118800F58052D2F8AC34D2F823
:10202000A8041844D2F8A4341844D2F88C341844C4
:10203000D2F89C341844D2F898341844002383F31F
:102040001188704700F58050C0F864140120704773
:102050002DE9FF470C4600F58051054691F86204D2
:10206000BDF8308098B1D1F888040130C1F88804F7
:102070002068860006D4207B08280BD9667B0EB129
:102080000F2807D9D1F88C340133C1F88C344FF0C4
:10209000FF30AAE0302080F31188A86BD0F8C4701C
:1020A00017F4001713D0D1F890040130C1F8900450
:1020B000D1F89414002940F09B80CDF8008021468F
:1020C000284600F08FFE002383F311888DE0D0F8BE
:1020D000C460286BC6F301464FF0480919FB060996
:1020E00020680028B4BF40F0804C4FEA804CC9F80B
:1020F00000C02068400044BF4CF00050C9F8000008
:1021000094F80CC0300640EA0C40C9F8040094F87A
:102110000DC04FEA461ABCF1000F27D040F4401022
:10212000C9F80400D1F8C0040130C1F8C00405EBBF
:102130000A0101F58351087F40F020000877207BD9
:10214000CDE9022300F0A2FEDDE902230330801076
:10215000F9B2814207F1010710DA04EB810C09EBB7
:102160008101DCF804C0C1F808C0F1E705EB0A0101
:1021700001F58351087F6CF34510DFE7A96B01205F
:10218000B040C1F8CC0006F1830105EB4111C1E973
:10219000002305EB461101F583512046083104F177
:1021A0000C0750F804CB41F804CBB842F9D10088B1
:1021B0000880AA4441F278014AF801600AF5805A81
:1021C00008F003019AF87C0041F0100120F01F0094
:1021D00001438AF87C10002181F31188CDF800803A
:1021E0002146284600F0FEFD012004B0BDE8F0873E
:1021F000002068E713B500F580540191606DFFF78A
:10220000E7FD1F280AD90199606D2022FFF756FECD
:10221000A0F120035842584102B010BD0020FBE756
:1022200008B5302383F3118800F58050406DFFF727
:10223000A3FD002383F3118808BD00000022026083
:10224000828142608260704710B500220023C0E99D
:1022500000230023044603810C30FFF7EFFF2046E4
:1022600010BD00002DE9F0479A4688B00746884621
:102270009146302383F3118807F580546846FFF7B1
:10228000E3FF606DFFF78AFD1F282DD9606D2022C6
:102290006946FFF795FE202826D194F862341BB3D7
:1022A00003AD444605AB2E4603CE9E4220606160DE
:1022B000354604F10804F6D130682060B388A38065
:1022C000DDE90023C9E90023BDF80830AAF8003091
:1022D000002383F3118853464A464146384608B0E6
:1022E000BDE8F04700F03CBD002080F3118808B045
:1022F000BDE8F0872DE9F84F064635468846182296
:1023000000210430FFF702FA254B45F8403B06F563
:1023100082572C4620462034FFF796FFA742F9D17A
:1023200006F580544FF4805325640025C4E9113527
:1023300001236765E56484F8503084F8583006F569
:10234000845706F5A4594FF0000A4FF0000B47E9F7
:1023500008ABA7F11800FFF771FF203747F8285C9A
:102360004F45F4D184F86884A4F86A54A4F86C54F6
:10237000A4F86E5484F87054A4F87254A4F87454F9
:10238000A4F8765484F87854B8F1000F02D00548C8
:1023900000F0D2FC044BB3633046BDE8F88F00BFB9
:1023A0007C530008605300080068004010B5044BDF
:1023B000197804464A1C1A70FFF79CFF204610BD8E
:1023C0007D4F00202DE9F84315460C4600295CD0CE
:1023D000022001F085FF2E49B0FBF4F78C428CBF40
:1023E0000A2111214B1EB7FBF1F601FB1671DAB27F
:1023F00021B1022B1946F5D8002032E0731EB3F547
:10240000806FF9D2C2EBC20808F103014FEAE10E76
:10241000C1F3C701A2EB010C0EF101094FF47A736D
:102420005FFA8CF70EFB033E59FA8CFCBEFBFCFCFA
:10243000BCF5617F17DC1FFA8CF34A1C57FA82F255
:102440007243B0FBF2F08442D6D14A1E0F2AD3D891
:102450007A1E072AD0D801202B806E8028716971DE
:10246000AF71BDE8F88308F1FF314FEAE10CC1F329
:10247000C701521A0CF1010ED7B20CFB03335EFAFE
:1024800082F2B3FBF2F39BB2D7E70846E9E700BF5D
:102490003F420F0030B50D4B0D4D05201C786C43AD
:1024A0008C420ED15978518099785171D9789171B7
:1024B000197911715B7903EB83035B0013800120B1
:1024C00030BD013803F10603E8D1F9E7B85300083D
:1024D00040420F000B4B10B54FF4547204460021DC
:1024E0001846FFF713F9084B63624033A362D833F1
:1024F000E362F0332363A36B20620022C3F8C020A1
:1025000010BD00BF50A70040C0A700402DE9F04318
:1025100000F5805589B095F86834012B044688464B
:10252000174604D90026304609B0BDE8F083964A24
:1025300052F8231009B942F823009448C4F81C80CB
:10254000017899B9302383F31188914B9A6D42F049
:1025500000729A659A6B42F000729A639A6B22F04D
:1025600000729A630123037081F3118895F8616406
:102570007EB9302383F311880321562001F0E8FE51
:102580000321572001F0E4FE012385F8613486F32E
:102590001188302383F31188A26B936923F0100311
:1025A000936100F0CFFB8146A36B9E6916F008068D
:1025B00009D000F0C7FBA0EB0903FA2BF4D90026E1
:1025C00086F31188AFE79A6942F001029A6100F040
:1025D000B9FB8146A36B9A69D00706D400F0B2FB21
:1025E000A0EB0903FA2BF5D9E9E79A6942F0020258
:1025F0009A61A36B4FF00009C3F8549089F31188D6
:10260000686DFFF7B9FB202200216846FFF77EF8CE
:1026100002A8FFF713FE04F58353CDF818906A461D
:1026200033440DF1180E9446BCE80300F4451860DD
:102630005960624603F10803F5D1DCF80000186028
:1026400020369CF804201A71B6F5806FDBD1002388
:1026500004F5A35285F8603485F863340A324146A4
:102660002046FFF7AFFE064690B9A26B936923F0B0
:102670000103936100F066FB0546A36B9B69D907D4
:102680007FF550AF00F05EFB431BFA2BF5D949E70D
:1026900095F86E34C5F87C84591E95F86F34A26B9A
:1026A000013B1B0243EA416395F8701401390B4367
:1026B000B5F86C14013943EA0143D361002F36D0D9
:1026C00004F5A352123239462046FFF7E3FE90B9D3
:1026D000A26B936923F00103936100F033FB05467D
:1026E000A36B9B69DA077FF51DAF00F02BFB431B43
:1026F000FA2BF5D916E795F87734C5F88074591E8A
:1027000095F87834A26B013B1B0143EA012395F84D
:10271000761401390B43B5F87414013943EA0143C7
:1027200043F40003D360A36B4FF420629A64204605
:10273000FFF7D0FE002385F86934A36B6FF04042A9
:102740001A65A36B134A5A65A36B44229A65A36B5F
:102750000722C3F8DC20A36B0322DA65A26B93691E
:1027600023F00103936100F0EDFA0746A36B9B6928
:10277000DB0705D500F0E6FAC31BFA2BF6D9D1E644
:10278000012385F86234CEE6784F00207C4F00208C
:10279000001002409B0008002DE9F04F00F5A557FE
:1027A0008BB00546904699464FF0000B41F2780AEF
:1027B0001037AB6BD3F8D43023FA0BF3DC0753D5C7
:1027C00005EB4B1151444FEA4B120B7918074BD4D0
:1027D00005F58056D6F894340133C6F89434C7E929
:1027E00000890B79990648BFD6F8C43405EB02017D
:1027F00048BF0133514448BFC6F8C4340B7943F095
:1028000008030B71DB0724D596F863340BB302A8D9
:10281000019205F58354FFF717FD019A083414441B
:1028200005AB04F1080C206861681A4603C208343D
:1028300064451346F7D120681060A2889A8001236E
:10284000ADF810302B68CDE902899B6B02A92846B0
:102850009847D6F8B834D6F864040133C6F8B834CB
:1028600010B103681B6998470BF1010BBBF1200FF6
:102870009FD10BB0BDE8F08F2DE9F04F8DB004462D
:102880000F4600F061FA82468946002F56D1A36BAD
:10289000D3F89020920141BF04F58051D1F8A824CB
:1028A0000132C1F8A824D3F89020160703D10020E4
:1028B0000DB0BDE8F08FD3F89050A66AC5F301259E
:1028C000482303FB0566E8464046FFF7B7FC32683D
:1028D00051004ABF22F06043C2F38A4343F00043F1
:1028E000920048BF43F080430093736813F40013D1
:1028F0001FBF04F5805201238DF80D30D2F8C83483
:102900000EBF8DF80D300133C2F8C834F38803F0E0
:102910000F038DF80C304FF0000B9DF80C0000F009
:10292000B5FA5FFA8BF3984220D9F2180CA90B4440
:10293000127A03F82C2C0BF1010BEEE7012FB6D124
:10294000A36BD3F89820950141BF04F58051D1F8CD
:10295000A8240132C1F8A824D3F898201007A6D0E3
:10296000D3F89850E66AC5F30125A9E7EFB9A36B40
:10297000C3F8945004A8FFF767FC98E80F0007AD70
:1029800007C52B800023ADF8183023682046CDE919
:1029900004A99B6B04A9984704F5805458B1D4F856
:1029A000A0340133C4F8A03482E7012F04BFA36B25
:1029B000C3F89C50DEE7D4F8A4340133C4F8A4343F
:1029C000012075E72DE9F04105460F4600F58054DA
:1029D000012639462846FFF74FFF10B184F863649B
:1029E000F7E7D4F8B834D4F864040133C4F8B83441
:1029F00020B10368BDE8F0411B691847BDE8F081CC
:102A0000F0B5836B1A6C12F47F0F2BD000F5805455
:102A10001B6CC4F8BC3441F27805002347194FF011
:102A2000010C00EB43122A445E01117911F0020FF0
:102A300015D0490713D4B959866BD6F8C8E00CFAFB
:102A400001F111EA0E0F0AD0C6F8D010117941F049
:102A500004011171D4F89C240132C4F89C24013380
:102A6000202BDED1F0BD000010B5254C254B22688F
:102A700002B338B31A6D12060ED580221A6500F023
:102A800063F950EA01020B4602D0013861F10003FC
:102A900002462068FFF780FE1A4A136D1B032AD5F1
:102AA00023684FF4002103F580531165012283F858
:102AB000692420E001221A6508221A654FF4806219
:102AC0001A6510BD196DC80702D4196D890705D59F
:102AD0000321196510460021FFF774FF094B1A6D99
:102AE000100702D41A6DD10605D518221A65206880
:102AF0000121FFF767FF2068BDE81040FFF780BFA6
:102B0000784F00200068004008B5302383F3118817
:102B1000FFF776FF002383F3118808BD836BD3F89A
:102B2000C40080F40010C0F34050704708B5302353
:102B300083F3118800F58050406DFFF72FF90023D3
:102B400083F3118843090CBF0120002008BD000059
:102B500000F5805393F8692462B1816B8A6922F091
:102B600001028A61D3F8AC240132C3F8AC240022FC
:102B700083F86924704700002DE9F743302181F381
:102B80001188002500F5835141F2780E4FF00108BD
:102B900000F5805C00EB45147444267977071CD45B
:102BA000F6061AD5D0F838908E69D9F8C87008FAA8
:102BB00006F63E4211D04F6801970F689742019F79
:102BC0009F410AD2C9F8D060267946F004062671E2
:102BD000DCF898440134CCF898440135202D01F1FB
:102BE0002001D7D1002383F3118803B0BDE8F0831F
:102BF000F8B51E46002313700F4605461446FFF72E
:102C000095FF80F0010038701EB12846FFF786FF5F
:102C10002070F8BD2DE9F04F85B09946DDE90EA38F
:102C20000D4602931378019391F800B08046164642
:102C300000F08AF82B7804460F4613B93378002B3E
:102C400041D022463B464046FFF796FFFFF75CFF28
:102C5000FFF77EFF4B4632462946FFF7C9FF2B7828
:102C600033B1BBF1000F03D0012005B0BDE8F08FF8
:102C7000337813B1019B002BF6D108F580530393F1
:102C8000029B544577EB03031DD2039BD3F86404E6
:102C9000C8B10368AAEB04011B6898474B4632464B
:102CA00029464046FFF7A4FF2B7813B1BBF1000F74
:102CB000DAD1337813B1019B002BD5D100F044F861
:102CC00004460F46DCE70020CFE7000008B50020EF
:102CD000FFF7CAFEBDE8084001F0B4B808B501200E
:102CE000FFF7C2FEBDE8084001F0ACB800B59BB0EC
:102CF000EFF3098168226846FEF7F6FCEFF30583DF
:102D0000014B9B6BFEE700BF00ED00E008B5FFF74D
:102D1000EDFF000000B59BB0EFF309816822684623
:102D2000FEF7E2FCEFF30583014B5B6BFEE700BFB0
:102D300000ED00E0FEE700000FB408B5029801F0D6
:102D400091FDFEE702F096B802F078B80139C9B2F9
:102D500002299EBF00EBC1000023C0E90133704788
:102D60002DE9F8431E461B885B070546884618D4A4
:102D7000044600F118094C4513D063686BB12B6809
:102D800028465B6B98473388A768C1B243F00403B9
:102D900060684246B8470834EDE7A368002BEED1DF
:102DA000F9E70120BDE8F88373B56C4684E80600B6
:102DB000014600224E68D5B26EB98E685EB900EB4E
:102DC000C200021D94E80300013582E803001D7073
:102DD000012002B070BD0132032A01F10801E9D1DE
:102DE0000020F6E72DE9F04F2DED028B89B09FED25
:102DF000258BBDF8508004468B46054600F1180926
:102E0000002708F0040AA94536D06B680BB9AB68F7
:102E100063B1BAF1000F0BD1236820465B6B984772
:102E20004346C1B25A46D5E90106B0470835EAE73C
:102E3000002FFBD18DED008BADF808705B4603AA27
:102E40000BF1080C18685968174603C70833634527
:102E50003A46F7D1186838609B88BB80FFF774FF4B
:102E60000423ADF808302368CDE900019B6B694667
:102E7000204698470127D9E7012009B0BDEC028B15
:102E8000BDE8F08F0000000000000000082817D9FE
:102E900009280CD00A280CD00B280CD00C280CD0F8
:102EA0000D280CD00E2814BF4020302070470C2075
:102EB000704710207047142070471820704720205A
:102EC000704700002DE9F041456A15B94162BDE83F
:102ED000F0814B6823F06047C3F38A464FEAD37E04
:102EE000C3F3807816EA230638BF3E46AC462B462D
:102EF0005A68BEEBD27F22F060440AD0002A18DA6A
:102F0000A40CB44217D19D420FD10D60DEE71346E9
:102F1000EEE7A74207D102F08044C2F38072424537
:102F20000BD054B1EFE708D2EDE7CCF800100B60FE
:102F3000CDE7B44201D0B442E5D81A689C46002AD5
:102F4000E5D11960C3E700002DE9F047089D01F0C5
:102F500007044FEAD508224405F0070500EBD1002D
:102F60004FF47F49944201D1BDE8F08704F0070790
:102F700005F0070A57453E4638BF5646C6F10806D3
:102F8000111B8E4228BF0E46E10808EBD50E415CAE
:102F900013F80EC0B94029FA06F721FA0AF1FFB278
:102FA0008CEA010147FA0AF739408CEA010C03F870
:102FB0000EC034443544D5E780EA0120082341F2AD
:102FC000210201B24000002980B203F1FF33B8BFF3
:102FD000504013F0FF03F4D17047000038B50C46A1
:102FE0008D18A54200D138BD14F8011BFFF7E4FF8E
:102FF000F7E7000042684AB113684360438981895A
:1030000001339BB29942438138BF83811046704798
:1030100070B588B0202204460D4668460021FEF7B0
:1030200075FB20460495FFF7E5FF024658B16B4655
:10303000054608AE1C4603CCB442286069602346AE
:1030400005F10805F6D1104608B070BD082817D95B
:1030500009280CD00A280CD00B280CD00C280CD036
:103060000D280CD00E2814BF4020302070470C20B3
:103070007047102070471420704718207047202098
:1030800070470000082817D90C280CD910280CD933
:1030900014280CD918280CD920280CD930288CBF1A
:1030A0000F200E207047092070470A2070470B2020
:1030B00070470C2070470D20704700002DE9F84341
:1030C000078C072F04461ED9D0E9029800254FF639
:1030D000FF73C5F12006A5F1200029FA05F108FAD1
:1030E00006F628FA00F031430143C9B21846FFF74B
:1030F00063FF0835402D0346EBD1E1693A46BDE850
:10310000F843FFF76BBF4FF6FF70BDE8F883000090
:1031100010B54B6823B9CA8A63F30902CA8210BD8D
:1031200004691A681C600361C38A013BC3824A6058
:10313000EFE700002DE9F84F1D46CB8A0F46C3F399
:1031400009010529814692460B4630D00020AAB2DB
:1031500007F11A049EB2042E1FFA80F80FD890458A
:1031600003F1010306D3FB8A0A4462F30903FB82DD
:1031700001201AE01AF80060E6540130EAE79045B1
:10318000F1D2A1F1050B1C237C68BBFBF3F203FB1E
:1031900012BB1FFA8BF6002C45D14846FFF72AFFD9
:1031A000044638B978606FF00200BDE8F88F4FF040
:1031B0000008E6E7002606607860ADB24FF0000B2D
:1031C000454510D90AEB0803221D13F8011B915540
:1031D000B1B208F101081B291FFA88F82BD0454528
:1031E00006F10106F1D8FB8AC3F30902154465F321
:1031F0000903BCE7013292B21C462368002BF9D1C7
:103200006B1F0B441C21B3FBF1F301339BB29A42B9
:10321000D3D2BBF1000FD0D14846FFF7EBFE20B967
:10322000C4F800B0BFE70122E7E7C0F800B05E468F
:1032300020600446C1E74545D5D94846FFF7DAFE88
:1032400008B92060AFE7C0F800B00026206004464F
:10325000B6E700002DE9F04F2DED028B1C4683B040
:103260005B69019207468846002B00F0A780238CFB
:103270002BB1E269002A00F0A180072B35D807F1B5
:103280000C00FFF7B7FE054638B96FF00205284677
:1032900003B0BDEC028BBDE8F08F14220021FEF7D5
:1032A00035FA228CE16905F10800FEF71DFA208C41
:1032B000013080B2FFF7E6FEFFF7C8FE013880B2AA
:1032C0002084013028746369228C1B782A4403F01F
:1032D0001F0363F03F0348F00041137238466960F2
:1032E0002946FFF7EFFD0125D1E702339BB2072204
:1032F000C18A0633B3FBF2F3828A521A9BB292B2AE
:103300009342C2D800F10C034FF0000908EE103AC6
:103310004FF0800A4E464D4618EE100AFFF76AFE3F
:1033200083460028B1D014220021FEF7EFF9002EC9
:103330003AD1019BABF8083002220BF1080E1FFABC
:1033400082FC0CF10100BCF1060F218C80B201D887
:103350008E422BD3FFF796FEFFF778FE6269127854
:10336000013802F01F028E4208BF4FF0400A42EAC5
:1033700049121BFA80F14AEA020A013048F0004281
:1033800081F808A08BF81000CBF804205946384685
:10339000FFF798FD238C0135B3422DB289F0010966
:1033A0004FF0000AB8D172E70022C6E7E169895DF3
:1033B0000EF802100136B6B20132C0E76FF0010517
:1033C00065E70000F8B515460E4630220021044698
:1033D0001F46FEF79BF9069B6360B5F5001F079B30
:1033E000A76034BF6A094FF6FF72A36297B2E66125
:1033F00004F1100000239A4206D800230360A7823C
:10340000E3822383E360F8BD066001333046203653
:10341000F1E7000003781BB94BB2002BC8BF017065
:103420007047000000787047F8B50C46C969074638
:1034300011B9238C002B37D1257E1F2D34D8387835
:1034400028BB228C072A2CD8268A36F003032BD1DE
:103450004FF6FF70FFF7C2FD20F00100310240047B
:1034600041EA0561400C41EA40254FF6FF722346D0
:1034700029463846FFF7EEFE002807DD626913781B
:103480000133DBB21F2B88BF00231370F8BD218AE4
:103490002D0645EA012505432046FFF70FFE0246AB
:1034A000E5E76FF00300F1E76FF00100EEE70000E1
:1034B00070B58AB0044616460021282268461D468B
:1034C000FEF724F9BDF83830ADF810300F9B0593A6
:1034D0009DF840308DF81830119B07936946BDF870
:1034E0004830ADF820302046CDE90265FFF79CFF5B
:1034F0000AB070BD2DE9F041D36905460C46164669
:103500000BB9138C5BBB377E1F2F28D895F8008032
:10351000B8F1000F26D03046FFF7D0FD33782102F6
:1035200041EAC33141EA0801338A41EA076141EACD
:1035300003410246334641F080012846FFF78AFEE8
:1035400000280ADD3378012B07D172691378013323
:10355000DBB21F2B88BF00231370BDE8F0816FF032
:103560000100FAE76FF00300F7E70000F0B58BB059
:1035700004460D4617460021282268461E46FEF7DF
:10358000C5F89DF84C305A1E534253418DF8003017
:103590009DF84030ADF81030119B05939DF84830F0
:1035A0008DF81830149B07936A46BDF85430ADF877
:1035B000203029462046CDE90276FFF79BFF0BB06D
:1035C000F0BD0000406A00B104307047436A1A68D9
:1035D000426202691A600361C38A013BC382704779
:1035E0002DE9F041D0F82080194E14461D46414681
:1035F000002709B9BDE8F081D1E90223A21A65EBE1
:103600000303964277EB03031ED2036A8B420DD16C
:10361000FFF77EFD036A1B68036203690B60C38AC0
:103620000161016A013BC3828846E2E7FFF770FD52
:103630000B68C8F8003003690B60C38A0161013B65
:10364000C382D8F80010D4E788460968D1E700BFE4
:1036500080841E002DE9F04F8BB00D46DDF85090B0
:1036600014469B468046002800F01981B9F1000FEE
:1036700000F01581531E3F2B00F21181012A03D166
:10368000BBF1000F40F00B810023CDE90833B8F8FF
:103690001430B5EBC30F4FEAC30703D300200BB0C0
:1036A000BDE8F08F2B199F42D8F80C303ABF7F1B32
:1036B000FFB227461BB9D8F81030002B7AD0272D3F
:1036C0004ED8C5F12806B7424FF000032CBFF6B222
:1036D0003E4600932946D8F8080008AB3246FFF76B
:1036E00033FCA7EB060A35445FFA8AFAB8F81430BF
:1036F00003F10053053BDB000493D8F80C3003932F
:103700002821039B13B1BAF1000F2CD1D8F8100077
:1037100040B1BAF1000F05D0009608AB5246691AC5
:10372000FFF712FC38B2002FB8D066070AD00AABF8
:1037300003EBD401624211F8083C02F00702134186
:1037400001F8083C082C3CD9102C40F2B580202C04
:1037500040F2B780BBF1000F00F09C80082334E0FA
:10376000BA460026C2E7049BE02B28BFE02306935D
:103770000B44AB42059314D95A1B0398009692450B
:1037800034BF5246D2B2691A08AB04300792FFF731
:10379000DBFB079A1644AAEB020A1544F6B25FFA5D
:1037A0008AFA049B069A05999B1A0493039B1B684B
:1037B0000393A6E70093D8F8080008AB3A462946D9
:1037C000AEE7BBF1000F13D00123B4EBC30F6CD0F5
:1037D000082C12D89DF82030621E23FA02F2D50779
:1037E00006D54FF0FF3202FA04F423438DF820305F
:1037F0009DF8203089F8003051E7102C12D8BDF820
:103800002030621E23FA02F2D10706D54FF0FF32B4
:1038100002FA04F42343ADF82030BDF82030A9F8B3
:1038200000303CE7202C0FD80899631E21FA03F3DF
:10383000DA0705D54FF0FF3202FA04F40C4308947E
:10384000089BC9F800302AE7402C2BD0DDE9086539
:10385000611EC4F12102A4F1210326FA01F105FA47
:1038600002F225FA03F311431943CB0712D50122C3
:10387000A4F12003C4F1200102FA03F322FA01F1BA
:10388000A240524243EA010363EB430332432B431A
:10389000CDE90823DDE90823C9E90023FFE66FF03D
:1038A0000100FCE66FF00800F9E6082CA0D9102C06
:1038B000B3D9202CEED8C3E7BBF1000FADD0022363
:1038C00083E7BBF1000FBBD004237EE730B5012AAC
:1038D000144638BF0124402C85B028BF4024002561
:1038E000012ACDE9025518D81B788DF808306307F6
:1038F0000AD004AB03EBD405624215F8083C02F091
:103900000702934005F8083C009103462246002137
:1039100002A8FFF719FB05B030BD082AE4D9102A28
:1039200003D81B88ADF80830E1E7202A8DBFD3E922
:1039300000231B680293CDE90223D8E710B5CB68BA
:103940001BB98B600B618B8210BD04691A681C6007
:103950000361C38A013BC382CA60F0E703064CBF20
:10396000C0F3C0300220704708B50246FFF7F6FFEB
:10397000022806D15306C2F30F2001D100F0030044
:1039800008BDC2F30740FBE72DE9F04F93B0CDE946
:1039900004230A6804461046FFF7E0FF022814BF1C
:1039A000C2F306260026002A0D46824680F20282D5
:1039B00012F0C04940F0FE81097B002900F0FA8135
:1039C000022803D02378B34240F0F781C2F30463A6
:1039D0000693104602F07F030393FFF7C5FF039B96
:1039E00029444FEA834848EA0A4848EA4668CE78BC
:1039F00000230022CDE90823F309834648EA0008A2
:103A0000029367D0039B009302466768534608A958
:103A10002046B847002868D0276A4FB9414604F1CC
:103A20000C00FFF7F5FA074690B96FF002006AE064
:103A30003B6998450DD03F68002FF9D1414604F10C
:103A40000C00FFF7E5FA07460028EED0236A3B603A
:103A5000276297F817C006F01F08CCF3840CACEB74
:103A600008001FFA80FE0028B8BF0EF12000A8EB66
:103A70000C031FFA83FED7E90221B8BF00B2002B66
:103A80000793BEBF0EF120031BB2079352EA010356
:103A900042D0049BDFF834E39A1A059B4FF0000CE8
:103AA00063EB010196457CEB010335D36B7B97F803
:103AB0001AE0734521D1029B002B00F0848001287D
:103AC0002ADC786840BBDFF800C3944570EB010343
:103AD00043D21EE0276A5FB9039B00936568534693
:103AE0005A4608A92046A84768BB6FF00B000AE0B9
:103AF0003B699845ADD03F68EDE7B34890427CEB19
:103B0000010303D3002013B0BDE8F08F029B002B0C
:103B1000F8D0079B0F2B19DCFA7DB30002F00302EB
:103B200003F07C031343FB7539462046FFF7F0FA98
:103B30006B7BBB76029B4BB9FB7DC3F384020132E6
:103B400062F38603FB756FF00C00DCE76A7BBB7EDB
:103B50009A42D7D1029B002B35D0B309022B32D029
:103B6000049BBB60059BFB60142200210DA8FDF7A0
:103B7000CDFD049B0A93059B0B932B1D0C932B7B74
:103B8000ADF83EB0013BDBB2ADF83C30069B8DF8A2
:103B90004230039B8DF8433094F82C308DF840A0D0
:103BA00083F001038DF844308DF84180A3680AA9A1
:103BB00020469847FB7DC3F38403013303F01F03C2
:103BC0009B02FB829EE7FB7DC6F34012B2EBD31F44
:103BD00040F0F680C3F38403434540F0F980029A35
:103BE0002B7BB609002A52D016F0010661D1032BB7
:103BF00040F2F180049BBB60059BFB60FB8A66F38F
:103C00000903FB822B7BAE1D033BDBB232463946F8
:103C100004F10C00FFF78EFA00280CDA3946204632
:103C2000FFF776FAFB7DC3F38403013303F01F0330
:103C30009B02FB82F9E6DDE90884AB883B834FF603
:103C4000FF73C9F12000A9F1200228FA09F104FA52
:103C500000F0014324FA02F211431846C9B2FFF7FB
:103C6000ABF909F10809B9F1400F0346E9D1B8826F
:103C70002A7B033AD2B23146FFF7B0F9FB7DB88216
:103C8000DA43C2F3C01262F3C713FB753AE786B991
:103C90002E1D013BDBB23246394604F10C00FFF722
:103CA00049FA0028BADB2A7BB88A013AD2B23146F7
:103CB000E2E7F98AC1F30901013B0429DAB25BD8D2
:103CC000281D002307F11B069A4208D910F801CBE2
:103CD00006F801C0013101330529DBB2F4D10499A2
:103CE0000A9105990B91934207F11B010C9138BF82
:103CF000043379680D9134BF55FA83F300230E9392
:103D0000FB8AADF83EB0C3F309031A44069B8DF855
:103D10004230039B8DF8433094F82C30ADF83C20B2
:103D200083F001038DF8443000238DF840A08DF816
:103D300041807B602A7BB88A013A291DFFF74EF942
:103D40003B8BB882834203D1A3680AA920469847D7
:103D500020460AA9FFF7F2FDFB7DBA8AC3F384036C
:103D6000013303F01F039B02FB823B8B9A420CBF83
:103D700000206FF01000C6E67B68002BAFD0052056
:103D800001E01C3033461E68002EFAD1091A081DC6
:103D90002E1D184401EB090CBCF11B0F5FFA89F3CF
:103DA0009DD89A429BD916F8013B00F8013B09F1D6
:103DB0000109EFE76FF00900A5E66FF00A00A2E63F
:103DC0006FF00D009FE600BF40420F0080841E0090
:103DD0006FF00E0097E66FF00F0094E6EFF30983A3
:103DE00005494A6B22F001024A63683383F309886C
:103DF000002383F31188704700EF00E0302080F348
:103E0000118862B60C4B0D4AD96821F4E0610904AF
:103E1000090C0A43DA60D3F8FC20094942F08072A9
:103E2000C3F8FC200A6842F001020A602022DA7717
:103E300083F82200704700BF00ED00E00003FA05A0
:103E4000001000E010B5302383F311880E4B5B683F
:103E500013F4006314D0F1EE103AEFF30984683CD8
:103E60004FF08073E361094BDB6B236684F30988B1
:103E700000F0BCFC10B1064BA36110BD054BFBE785
:103E800083F31188F9E700BF00ED00E000EF00E0E8
:103E90003F030008420300080268436811430160C1
:103EA00003B1184770470000024A136843F0C0038B
:103EB000136070470038014013B50F4C204600F0E6
:103EC000F1FB04F114000D49009400234FF48072BB
:103ED00000F0AEFA0A490B4B00944FF4807204F1E3
:103EE000380000F027FB084BE365002000F0F8F9EC
:103EF000206602B010BD00BF844F0020F04F0020AC
:103F0000F0500020A93E00080038014030B5037C85
:103F1000234C002918BF0C46012B0FD1214B98428E
:103F20000CD1214B1A6E42F480421A66D3F88020DD
:103F300042F48042C3F88020D3F880302268036EB8
:103F4000C16D846603EB5203B3FBF2F362681504A0
:103F500042BF23F0070503F0070343EA4503CB60A4
:103F6000A36843F040034B60E36843F001038B60B8
:103F700042F4967343F001030B604FF0FF330B6282
:103F8000510505D512F0102205D0B2F1805F04D0A2
:103F900080F8643030BD7F23FAE73F23F8E700BFA5
:103FA000D8530008844F0020001002402DE9F0474C
:103FB000C66D3768F46934622107054619D014F0DC
:103FC000080118BF4FF48071E20748BF41F020019B
:103FD000A30748BF41F04001600748BF41F080019E
:103FE000302383F31188281DFFF756FF002383F346
:103FF0001188E2050AD5302383F311884FF48061DC
:10400000281DFFF749FF002383F311884FF0300983
:104010004FF0000A14F0200838D13B0616D54FF0B7
:10402000300905F1380A200610D589F31188504669
:1040300000F0B4FA002836DA0821281DFFF72CFF1B
:1040400027F080033360002383F31188790614D5A9
:10405000620612D5302383F31188D5E913239A42DF
:1040600008D12B6C33B11021281D27F04007FFF732
:1040700013FF3760002383F31188E30618D5AA6E77
:104080001369ABB1BDE8F0475069184789F311884F
:10409000736A95F864102846194000F01DFB8AF3F6
:1040A0001188F469B6E7B06288F31188F469BAE759
:1040B000BDE8F087434B4FF4007270B51A605A693F
:1040C00012F4C06FFBD1404B9A6802F00C02042A34
:1040D00020D01A6842F480721A601A685205FCD522
:1040E00001229A609A6802F00C02042AFAD1374938
:1040F000374A0A600A6812F00F02FBD1C3F8982011
:1041000063221A601A689603FCD42E4A4FF4807119
:10411000C2F88010C468E50306D51A6842F48032FC
:104120001A601A689103FCD5C269D20709D5D3F881
:10413000982042F00102C3F89820D3F898209607FF
:10414000FBD54269DA6044F480721A6004F0807131
:1041500011B11A689501FBD5996802691B4E22F0CE
:10416000030501F0030129439960856935603168D1
:1041700069400907FBD1134905680D6046684E6028
:104180008068C1F880006E0417D448698505FCD4A6
:10419000996802F0030021F0030101439960920045
:1041A0009968514011F00C0FFAD1E2055EBF1A6810
:1041B00022F480721A60002070BD48698005FCD529
:1041C000E6E700BF007000400010024000200240FF
:1041D0000006040008B500F0A7F8BDE8084000F0AC
:1041E00097B8000010B5394C3948A36A4FF0FF3238
:1041F000A262A36A0023A362A16AE16A61F07F015F
:10420000E162E16A01F07F01E162E16A216B226310
:10421000216B2363216BA16BA263A16BA363A16BD1
:10422000E16BE263E16BE363E16B216C2264226C7E
:104230002364226C226E42F001022266D4F88020B0
:1042400022F00102C4F88020D4F88020A26D42F050
:104250008052A265A26F22F08052A267A26F1D4A0F
:104260004FF400419160D360136253629362D36252
:10427000136353639363D363136453649364D3648A
:1042800013655365116841F480711160D4F8902072
:1042900012F4407F1EBF4FF48032C4F89020C4F85F
:1042A00090300D4A0023A360C4F88820C4F89C30E5
:1042B000FFF700FF10B1094800F0D4FAD4F89030AD
:1042C00023F00323C4F8903010BD00BF001002405B
:1042D000F85300080070004055010051F0530008E9
:1042E000014B53F8200070472823002008B50348ED
:1042F000FFF75CFEBDE80840FFF7A4BD844F002037
:1043000008B500F0CBFEBDE80840FFF79BBD0000FC
:1043100008B507211C2000F01BF8BDE808400C215F
:10432000252000F015B800004FF0E0230022586867
:104330004FF0FF31930003F1604303F56143013215
:104340009042C3F88010C3F88011F3D27047000088
:1043500000F1604303F561430901C9B283F800131A
:10436000012200F01F039A4043099B0003F16043C0
:1043700003F56143C3F880211A607047F8B515460C
:1043800082680669AA420B46816938BF8568761A39
:10439000B54204460BD218462A46FDF7A5F9A36993
:1043A0002B44A361A3685B1BA3602846F8BD0CD90E
:1043B00018463246FDF798F9AF1BE1683A4630449B
:1043C000FDF792F9E3683B44EBE718462A46FDF710
:1043D0008BF9E368E5E7000083689342F7B515467B
:1043E000044638BF8568D0E90460361AB5420BD25E
:1043F0002A46FDF779F963692B446361A36828466F
:104400005B1BA36003B0F0BD0DD932460191FDF7EF
:104410006BF90199E068AF1B3A463144FDF764F946
:10442000E3683B44E9E72A46FDF75EF9E368E4E721
:1044300010B50A440024C361029B8460C0E90000F7
:10444000C0E90511C1600261036210BD08B5D0E981
:104450000532934201D1826882B98268013282605A
:104460005A1C42611970D0E904329A4224BFC368D1
:104470004361002100F062FA002008BD4FF0FF30D8
:10448000FBE7000070B5302304460E4683F3118825
:10449000A568A5B1A368A269013BA360531CA361F1
:1044A00015782269934224BFE368A361E3690BB1E5
:1044B00020469847002383F31188284607E03146B9
:1044C000204600F02BFA0028E2DA85F3118870BD4F
:1044D0002DE9F74F04460E4617469846D0F81C9033
:1044E0004FF0300A8AF311884FF0000B154665B182
:1044F0002A4631462046FFF741FF034660B9414650
:10450000204600F00BFA0028F1D0002383F3118835
:10451000781B03B0BDE8F08FB9F1000F03D0019014
:104520002046C847019B8BF31188ED1A1E448AF37D
:104530001188DCE7C0E90511C160C3611144009B2B
:104540008260C0E90000016103627047F8B504466B
:104550000D461646302383F31188A768A7B1A368D8
:10456000013BA36063695A1C62611D70D4E9043287
:104570009A4224BFE3686361E3690BB12046984720
:10458000002080F3118807E03146204600F0C6F98C
:104590000028E2DA87F31188F8BD0000D0E905238E
:1045A0009A4210B501D182687AB98268013282607C
:1045B0005A1C82611C7803699A4224BFC3688361D4
:1045C000002100F0BBF9204610BD4FF0FF30FBE7A3
:1045D0002DE9F74F04460E4617469846D0F81C9032
:1045E0004FF0300A8AF311884FF0000B154665B181
:1045F0002A4631462046FFF7EFFE034660B94146A2
:10460000204600F08BF90028F1D0002383F31188B5
:10461000781B03B0BDE8F08FB9F1000F03D0019013
:104620002046C847019B8BF31188ED1A1E448AF37C
:104630001188DCE7026843681143016003B1184741
:10464000704700001430FFF743BF00004FF0FF3306
:104650001430FFF73DBF00003830FFF7B9BF00004E
:104660004FF0FF333830FFF7B3BF00001430FFF7CF
:1046700009BF00004FF0FF311430FFF703BF000007
:104680003830FFF763BF00004FF0FF323830FFF7DC
:104690005DBF0000012914BF6FF0130000207047B8
:1046A000FFF70ABC044B03600023C0E902334360F8
:1046B00001230374704700BF1854000810B530235D
:1046C000044683F31188FFF721FC022323740020A2
:1046D00080F3118810BD000038B5C36904460D464B
:1046E0001BB904210844FFF7A5FF294604F1140073
:1046F000FFF7ACFE002806DA201D4FF40061BDE88C
:104700003840FFF797BF38BD0023037582680369FF
:104710001B6899689142FBD25A680360426010603E
:104720005860704700230375826803691B689968A5
:104730009142FBD85A68036042601060586070472D
:1047400008B50846302383F311880B7D032B05D071
:10475000042B0DD02BB983F3118808BD8B6900227F
:104760001A604FF0FF338361FFF7CEFF0023F2E7BB
:10477000D1E9003213605A60F3E70000FFF7C4BFCD
:1047800038B50A4BDD681C68287522681A605360CA
:10479000DC60A36801229342227501D100F02CFC59
:1047A00029462046BDE83840FBF7B4BDF051002053
:1047B00030B50C4BDD684B1C87B004460FD02B4640
:1047C000094A684600F04CF92046FFF7D9FF009BE4
:1047D00013B1684600F04EF9A86907B030BDFFF785
:1047E000CFFFF9E7F051002041470008044B1A6859
:1047F000DB6890689B68984294BF00200120704756
:10480000F051002038B50B4B1C68DD6822681A6037
:10481000536001222275DC60AB68934201D100F045
:10482000EDFB2846FFF77EFF01462046BDE83840F5
:10483000FBF770BDF051002038B5074C0749084818
:10484000012300252370656000F056FC02232370CD
:1048500085F3118838BD00BF585400204454000827
:10486000F051002008B572B6044B186500F0D0FA7C
:1048700000F080FB024B03221A70FEE7F05100208B
:104880005854002000F02CB98B60022308618B8201
:10489000084670478368A3F1840243F8142C026928
:1048A00043F8442C426943F8402C094A43F8242C2D
:1048B000C26843F8182C022203F80C2C002203F8DB
:1048C0000B2C044A43F8102CA3F12000704700BFC2
:1048D0002D030008F051002008B5FFF7DBFFBDE80D
:1048E0000840FFF74BBF0000024BDB6898610F20C8
:1048F000FFF746BFF0510020302383F31188FFF704
:10490000F3BF000008B50146302383F31188082067
:10491000FFF74EFF002383F3118808BD064BDB68C9
:1049200039B1426818605A60136043600420FFF791
:104930003FBF4FF0FF307047F051002003689842AE
:1049400006D01A680260506099611846FFF716BFDA
:104950007047000010B503689C68A2420CD85C68E0
:104960008A600B604C602160596099688A1A9A606D
:104970004FF0FF33836010BD1B68121BECE7000093
:104980000A2938BF0A2170B504460D460A26601967
:1049900000F0ACFB00F098FB041BA54203D8751C8B
:1049A0002E460446F3E70A2E04D9BDE870400120E4
:1049B00000F0E2BB70BD0000F8B5144B0D46D961A4
:1049C00003F1100141600A2A1969826038BF0A2286
:1049D000016048601861A818144600F079FB0A27A6
:1049E00000F072FB431BA342064606D37C1C281929
:1049F00000F07CFB27463546F2E70A2F04D9BDE8D4
:104A0000F840012000F0B8BBF8BD00BFF051002015
:104A1000F8B506460D4600F057FB0F4A134653F80B
:104A2000107F9F4206D12A4601463046BDE8F84035
:104A3000FFF7C2BFD169BB68441A2C1928BF2C46A6
:104A4000A34202D92946FFF79BFF2246314603487D
:104A5000BDE8F840FFF77EBFF05100200052002073
:104A600010B4C0E9032300235DF8044B4361FFF752
:104A7000CFBF000010B5194C236998420DD0D0E982
:104A80000032816813605A609A680A449A60002371
:104A900003604FF0FF33A36110BD2346026843F863
:104AA000102F53600022026022699A4203D1BDE8B0
:104AB000104000F015BB936881680B44936000F0D0
:104AC00003FB2269E1699268441AA242E4D91144C5
:104AD000BDE81040091AFFF753BF00BFF051002096
:104AE0002DE9F047DFF8BC8008F110072C4ED8F80C
:104AF000105000F0E9FAD8F81C40AA68031B9A424B
:104B00003ED81444D5E900324FF00009C8F81C40E3
:104B100013605A60C5F80090D8F81030B34201D144
:104B200000F0DEFA89F31188D5E903312846984769
:104B3000302383F311886B69002BD8D000F0C4FABE
:104B40006A69A0EB04094A4582460DD2022000F0B2
:104B500013FB0022D8F81030B34208D15146284642
:104B6000BDE8F047FFF728BF121A2244F2E712EB24
:104B7000090938BF4A4629463846FFF7EBFEB5E734
:104B8000D8F81030B34208D01444211AC8F81C00D9
:104B9000A960BDE8F047FFF7F3BEBDE8F08700BFAE
:104BA00000520020F051002038B500F08DFA054A7F
:104BB000D2E90845031B181945F10001C2E90801B3
:104BC00038BD00BFF051002000207047FEE7000014
:104BD000704700004FF0FF3070470000BFF34F8F69
:104BE000024A1369DB03FCD4704700BF0020024077
:104BF00008B5094B1B7873B9FFF7F0FF074B5A69EB
:104C0000002ABFBF064A9A6002F188329A601A6889
:104C100022F480621A6008BD705400200020024017
:104C20002301674508B50B4B1B7893B9FFF7D6FFF7
:104C3000094B5A6942F000425A611A6842F48052A4
:104C40001A601A6822F480521A601A6842F480626C
:104C50001A6008BD7054002000200240FF289ABF4F
:104C600000F58030C0020020704700004FF4006063
:104C7000704700004FF4807070470000FF2808B5AF
:104C80000BD8FFF7EBFF00F500630268013204D197
:104C900004308342F9D1012008BD0020FCE7000068
:104CA000FF2838B5044624D8FFF798FFFFF7A0FF88
:104CB000114AF323136102235361C3005169C509EB
:104CC00003F47E7343EAC5230B435361536943F4F2
:104CD00080335361FFF782FF4FF40061FFF7BEFF9F
:104CE00000F044F9FFF79EFF2046BDE83840FFF78B
:104CF000C5BF002038BD00BF002002402DE9F843A9
:104D000040EA020313F00703144606D0304B4FF479
:104D100061721A600020BDE8F88385182D4A95421B
:104D20000CD92B4A40F289311160F3E7031D1B684F
:104D30004A68934208D1083C08300831072C14D93E
:104D400002680B689A42F1D0FFF752FFFFF746FF67
:104D5000214E08314FF001084FF00009012CA1F15C
:104D6000080706D8FFF75EFF01E0002CECD1012018
:104D7000D1E7C6F81480054651F8083C45F8043BD5
:104D800051F8043C4360FFF729FF336943F0010306
:104D90003361C6F81490026851F8083C9A420CD06E
:104DA0000B4B40F2B1321A600C4B18600C4B1C607C
:104DB0000C4B1F60FFF736FFACE72D6851F8043C41
:104DC0009D4201F10801EBD1083C0830C6E700BF65
:104DD0006C540020000008080020024060540020AD
:104DE0006854002064540020084908B50B7828B1A5
:104DF0001BB9FFF7FDFE01230B7008BD002BFCD093
:104E0000BDE808400870FFF70DBF00BF70540020D8
:104E100008B50649064800F0ABF8BDE808404FF475
:104E200000414FF0805000F0A3B800BF007F0100A8
:104E300000010020084600F02DBA000038B5EFF35D
:104E400011859DB9EFF30584C4F30804302334B110
:104E500083F31188FFF7A8FE85F3118838BD83F32B
:104E60001188FFF7A1FE84F3118838BDBDE83840F2
:104E7000FFF79ABE38B5FFF7E1FF114C114AC008A1
:104E800040EA4170A0FB025EC908A0FB040C1CEBC9
:104E9000050CA1FB04404FF000035B41A1FB021293
:104EA0001CEB040C43EB000011EB0E0142F100027D
:104EB000411842F10000090941EA007038BD00BF05
:104EC000CFF753E3A59BC4200244D2B2904200D155
:104ED0007047431C800000F1804000F514500068CA
:104EE00041F8040BD8B2F1E7124B10B5D3F890405B
:104EF000240409D4D3F89040C3F89040D3F89040EC
:104F000044F40044C3F890400B4C2368024443F43B
:104F100080732360D2B2904200D110BD431C800048
:104F200000F1804000F5145051F8044B0460D8B2F1
:104F3000F1E700BF001002400070004007B50122F9
:104F400001A90020FFF7C0FF019803B05DF804FB42
:104F500013B50446FFF7F2FFA04205D0012201A9D4
:104F600000200194FFF7C0FF02B010BD70470000A1
:104F70007047000070470000074B45F255521A6019
:104F800003225A6040F2FF729A604CF6CC421A60DB
:104F9000024B01221A707047003000407854002004
:104FA000034B1B781BB1034B4AF6AA221A607047C9
:104FB0007854002000300040054B1A6832B902F1E5
:104FC000804202F50432D2F894201A60704700BF84
:104FD00074540020024B4FF40002C3F89420704731
:104FE0000010024008B5FFF7E7FF024B1868C0F356
:104FF000407008BD745400207047000070470000E6
:1050000070470000FEE700000A4B0B480B4A904235
:105010000BD30B4BDA1C121AC11E22F003028B4277
:1050200038BF00220021FCF771BB53F8041B40F885
:10503000041BECE7D45500087C5400207C5400206D
:105040007C54002008B5124B9A6D42F001029A651B
:105050009A6F42F001029A670E4A9B6F936843F081
:10506000010393600620FFF73BF90B4BB0FBF3F015
:105070004FF080434FF0FF3201389862DA6200222D
:105080009A615A63DA605A6001225A611A6008BD57
:1050900000100240002004E040420F004FF0804228
:1050A00008B51169D3680B40D9B2C9439B07116198
:1050B00007D5302383F31188FFF7E4FB002383F344
:1050C000118808BDFFF7BEBF4FF08043586A704794
:1050D0004FF08043002258631A610222DA60704761
:1050E0004FF080430022DA60704700004FF08043A9
:1050F00058637047FEE7000070B51B4B0163002545
:10510000044686B0586085620E46FEF777FE04F1CD
:105110001003C4E904334FF0FF33C4E90635C4E992
:105120000044A560E562FFF7CFFF2B460246C4E9C5
:10513000082304F134010D4A256580232046FFF73A
:10514000A3FB0123E0600A4A037500927268019292
:10515000B268CDE90223074B6846CDE90435FFF775
:10516000BBFB06B070BD00BF58540020505400086F
:1051700055540008F5500008024AD36A1843D0621B
:10518000704700BFF05100204B6843608B6883601C
:10519000CB68C3600B6943614B6903628B694362EF
:1051A0000B6803607047000008B5204BDA6A42F0D4
:1051B0007F02DA62DA6A22F07F02DA62DA6ADA6C95
:1051C00042F07F02DA64DA6E42F07F02DA66184A51
:1051D000DB6E11464FF09040FFF7D6FF02F11C0145
:1051E00000F58060FFF7D0FF02F1380100F5806024
:1051F000FFF7CAFF02F1540100F58060FFF7C4FF1A
:1052000002F1700100F58060FFF7BEFF02F18C0132
:1052100000F58060FFF7B8FF02F1A80100F580609B
:10522000FFF7B2FFBDE80840FEF7DCBF0010024008
:105230005C54000808B500F009F8FFF7FDFABDE876
:105240000840FFF7B9BE00007047000008B5FEF740
:10525000C1FF00F009F8FFF723FAFFF7F5FFBDE8FB
:105260000840FFF72FBF0000704700000B460146C3
:10527000184600F001B8000010B5054C13462CB1DB
:105280000A4601460220AFF3008010BD2046FCE72D
:1052900000000000024B01461868FFF7CBBD00BFBD
:1052A0005023002010B501390244904201D1002062
:1052B00005E0037811F8014FA34201D0181B10BD7F
:1052C0000130F2E72DE9F041A3B1C91A1778014482
:1052D000044603F1FF3C8C42204601D9002009E03E
:1052E0000578BD4204F10104F5D10CEB0405D61894
:1052F000A54201D1BDE8F08115F8018D16F801ED48
:10530000F045F5D0E7E70000034611F8012B03F85C
:10531000012B002AF9D17047121000001211000071
:10532000121300006F72672E6172647570696C6F82
:10533000742E53747261746F737068657265730054
:1053400053544D333247343F3F00000040A2E4F154
:10535000646891060041A3E5F265699207000000C8
:105360004261642043414E496661636520696E6411
:1053700065782E0000000000000000000D250008E8
:10538000E51F0008152C00084520000851200008E2
:105390006522000811200008ED1F0008E11F000829
:1053A00021220008F91F0008A92D00084D2D000832
:1053B00005200008F521000801040E05054B020236
:1053C0000E05054B04010E05054B05010B04044BAE
:1053D00008010603034600000096000000000000DC
:1053E00000000000000000000000000000000000BD
:1053F000636C6B7377630000000300000000000023
:105400000001000000000101030000002328310119
:1054100004070400010000000000000061460008CD
:105420004D46000889460008754600088146000878
:105430006D46000859460008454600089546000894
:1054400063300000405400084852002058540020A7
:105450006D61696E0069646C65000000041028A825
:1054600000800000AAAAAAAA00001424BDFF000020
:10547000000000007007004000A8501480000000E9
:10548000AAAAAAAA00000000FF9F000000009049FD
:10549000000000000010000000000000AAAAAAAA54
:1054A00000100000FFFF00000000000000000000EE
:1054B0000000000000000000AAAAAAAA0000000044
:1054C000FFFF0000000000000000000000000000DE
:1054D00000000000AAAAAAAA00000000FFFF000026
:1054E00000000000000000000000000000000000BC
:1054F000AAAAAAAA00000000FFFF00000000000006
:10550000000000000000000000000000AAAAAAAAF3
:1055100000000000FFFF000000000000000000008D
:10552000F81B0000000000000070070000000000F1
:10553000FE2A0100D2040000FF000000844F00207A
:105540000000000040530008006889096D8BB90213
:1055500000B4C404006889090068890900688909E1
:10556000006889090068890900688909000000004D
:105570005423002000000000000000000000000094
:10558000000000000000000000000000000000001B
:10559000000000000000000000000000000000000B
:1055A00000000000000000000000000000000000FB
:1055B00000000000000000000000000000000000EB
:1055C00000000000000000000000000000000000DB
:0455D00000000000D7
:00000001FF
